:10000000000600209903000071000000730000004A
:1000100000000000000000000000000000000000E0
:10002000000000000000000000000000750000005B
:100030000000000000000000770000000000000049
:10004000290A00002F0A0000350A00003B0A0000C0
:10005000410A0000470A00004D0A0000530A000050
:10006000590A00005F0A0000650A00006B0A0000E0
:10007000FEE7FEE7FEE7FEE7FEE70020006880F30C
:1000800008887047D548002101724172704710B549
:10009000D24B72B61A7A5C7A511C0907090F8C424E
:1000A00001D1012006E0CD4C9200403C1219906035
:1000B0001972002062B610BDC84E403E344640342E
:1000C000217A607A814201D130BFF9E78100891934
:1000D0008D68002D0BD0401C0007000F6072A847F0
:1000E0000028EDD02846FFF7D2FF0028E8D0FFF720
:1000F000C9FFE5E710B5BA4CA07B002803D000F09B
:1001000017FA0020A073B7480088000706D5B64844
:10011000818904221143818100F002F8002010BD82
:1001200008B5B349B1480860FFF7A7FFB1490520FA
:10013000088206208880B0485A210180811581807C
:1001400009210181AD498181AB49022420310C8311
:100150000821818384823B2109020183A24908206E
:1001600088808C80A048002140388180A44901808B
:10017000532109020182A3480088E1010843A149F3
:100180000880A14892210180202606809E492031C6
:100190000A8A0C27BA43083222430A8201258D823B
:1001A000002101809949E0208881984980202039E8
:1001B000888120208883964881B2964800F091F982
:1001C000964830229449009000F07BF98E486030C8
:1001D000008BC006C043C00F410080486030C1752D
:1001E0008048058081220280142282800F220281B1
:1001F000212202808A48058003220280884A203218
:10020000118141210183874981800181818101829E
:100210008549B4220A80714A3C320A8107228A80C9
:10022000814920390C811121018000F02AF94120F7
:100230007E49C00008606E4980390860684C00F053
:10024000B3FA0006000E6073F9D000F02CF976487E
:10025000203801898907FCD5734900250D800221CA
:10026000018109220121284600F0F6F84003010C23
:100270000098C1876548203885816D490120088034
:1002800081220A806A4B952220331A80FF228A82BB
:10029000032212020A828D80644A21211160544A8D
:1002A000803A1160617B4D4A8B075C499B0F403956
:1002B000403A012B3DD0022B44D05E495160494960
:1002C0000A8808231A430A804F4960318A8A444DBC
:1002D000403D2A700A8A6A70098BA970E87018225A
:1002E0005549281D00F0EDF8102028872946A772EF
:1002F000022060318870A88E40210843A8860846F5
:1003000000F009F938488089400706D5607B042150
:1003100008436073E08F3043E087FFF7B3FE00F0DF
:10032000E7F8424945480860314980390860FFF7DD
:10033000C3FE434B5360434A8A654A7832231A43CB
:100340004A70C1E7404B5360404A8A652D492039C5
:10035000088081220A802B4A1388FF2531352B43E0
:100360001380938812252B439380394A8A80052273
:100370000A8153228A814D220A800022D2430A82B6
:1003800000228A82204992230B800E801E4D203548
:100390002B8ABB432B8296E7082000F08DF81B4880
:1003A0000189C906FCD5FFF7BBFE0C4800B54038F3
:1003B0000168491C01604068FFF769FE1748403832
:1003C0000078400708D505482030817DC07D8142F6
:1003D00002D02048FFF75BFE002000BD4001002056
:1003E00040000020003C004040340040FF0F00006F
:1003F00080E100E0005C004000300040051D00008E
:10040000012A00002038004000580040206C0040C5
:100410005802002000000020E80D0000C00000206D
:1004200000440040393900002060004080E200E0D4
:1004300000640040F5000000180E000042080000B3
:10044000451A0000990B000075130000E10B000035
:10045000ED020000BF09000070B50023FE4D0AE068
:10046000440064194034A48F260B964207D124051A
:10047000240DE31840180828F2D3184670BDF74839
:1004800070BDF5480021E03001724172F44801214D
:100490000180011581800F210180022202810183E8
:1004A000042181827047EE48812101800021018072
:1004B000EC4907200881704700E000BF401EFCD2D5
:1004C0007047821801E008C908C09042FBD370470A
:1004D000821803E00B780370401C491C9042F9D34A
:1004E00070474118002200E004C08842FCD37047E6
:1004F000DD4801210180DC4A0521403211800022C3
:100500000282D94920310A82D84A8A8113220A807C
:10051000072101817047D64A118F014007D0D08E44
:100520000843D086D3488189202291438181704736
:10053000CF484030817B89060DD5CD4AC38AD18E04
:100540009943D1860022C282002904D1C9488189F9
:100550002022114381817047BF4910B5A0314A7AEA
:10056000C5480B2A08D3BC4AC4491160C4490A884B
:1005700010239A430A8010BD8B7A5B1CDCB2BB4B04
:100580008C729B1C012C09D00A2C09D2B2498C31E7
:10059000515C0122A41EA2401142ECD1184610BDAC
:1005A00000238B72521C4A7210BD0246002002E0EA
:1005B00013785840521C491EFAD270470822012174
:1005C00001E009184008521EFBD2C807C00F70474F
:1005D000F0B5A14C0027204626468C3080363D469B
:1005E0008446A034607A00280ED1A07A317B8842FC
:1005F00006D20121B940401C0D43A072BF1C34E05B
:100600000020A07201206072C1B2207A814218D20B
:10061000A07A002819D0092806D26246895C401EBB
:10062000C140C807C00F10E0092805D0FF220120F3
:10063000A272491C617208E06046085CFFF7BEFFC9
:1006400003E0607D01214840A175617D0122514098
:100650004840607540000843B8400543A07ABF1C7D
:10066000401CA072A07D012801D0102FBAD37F1E9C
:1006700027757586F0BD70B50646824892210180C7
:10068000202101807F482030018A302529430182C2
:100690007148711C8D30FFF788FF6F496E4C8919C6
:1006A00080318873A034F61C2672207BE072002013
:1006B0006072A07260750220A075FFF789FF704814
:1006C00001210180812101806F49704A49788B079F
:1006D000138803D52940FF31013100E029400B4345
:1006E00013806B49818005210181891F81816D21E2
:1006F000018059498031498E0182217D8182FFF735
:1007000067FF70BD634A9088534903076148A03171
:100710004038002B09DA082393800022CA7301882D
:100720007F221201114301807047CB7B5B1CDBB23F
:10073000CB730A2BF8D348494031CB7A8B724039BE
:100740000B688031CB638B630188F0239943018070
:1007500001218180022090807047002130224000DA
:10076000C30500D55040491C0829F8D30006000FE6
:1007700070473F4910B540318A8FC0075400C00F01
:10078000044345488C878178491CC9B281700C2983
:1007900008D32009FFF7E1FF2107090F884201D1A3
:1007A000012010BD002010BDF8B52E4E3088400647
:1007B00001D50320F8BD384A403A117A507A814277
:1007C0006CD04100244B401CC918C03100078988F7
:1007D000000F5072203A908D2B4D401C80B2403556
:1007E00090858446802801D9288FB4E06046264B46
:1007F000294C04287ED9D184918448002887002080
:10080000214B4700FF182E8F3B8EF3182B873B8E12
:10081000D68CB34201D2D38403E0968CB34200D984
:100820009384401C0628EBD317482030837F5B1C41
:10083000DBB28377062B01D300238377807F0523E8
:1008400046001148DB0130180186288FC008C31A02
:100850002887A12B2DD322E000010020FFFF0000FC
:1008600000500040003C004000540040E7030000FE
:1008700000000020206C0040DF2E0000EC0F000084
:100880000038004000580040800000202038004020
:10089000DB050000403400402002002054E06E8F51
:1008A0006346F3189BB26B87642B02D200209085BD
:1008B00066E0938CD28C394E9D1A0E2D45D9D018F6
:1008C0004708002530462570203083790122C07901
:1008D0008F4217D9002B0FD0B17F00290CD00028F0
:1008E00001D1022907D9E5710120FFF742FF002855
:1008F0001FD101E037E0E271B577F07F401CC0B254
:10090000F0771EE0002B05D0F17F002914D00028DD
:1009100009D106E0A271E571A5700020FFF729FF5B
:100920000AE0022907D9E5710020FFF722FF00281D
:1009300002D00220F8BDE271F577B07F401CC0B252
:10094000B07704281CD9A5711AE02178491CC9B2D6
:100950002170522902D900F0F7F9F8BD0020A071EA
:10096000B077F0770CE0604602280BD00020420000
:10097000D218401C11860628F9D30020A0712070DF
:100980000020F8BD3089064A401C504300F0F4F9BD
:1009900080B2A887C008401E3081F1E70002002025
:1009A000701700001C498A7D0B469200603BD218EC
:1009B000D064887D401C4007400F8875704730B573
:1009C00016488188890625D4154980220A800A8222
:1009D000114AD47D1546A300603D5B194C330B834F
:1009E00004238B8201230B818D881D438D80641C21
:1009F0006107490FD1750521517558218183FF2168
:100A0000818208490182302181800F210180818803
:100A100019438180002030BD600100200064004047
:100A200000600040C60300009748006C00479648ED
:100A3000406C00479448806C00479348C06C004766
:100A40009148006D00479048406D00478E48806D8A
:100A500000478D48C06D00478B48006E00478A48AC
:100A6000406E00478848806E00478748C06E004748
:100A7000F8B5864A1189908801401181C807022380
:100A8000002818D0908840084000908000201082F4
:100A900010807F4C657D7F48052D09D08688042510
:100AA0002E438680068AC127BF00BE430682657535
:100AB00084881C43848088070BD590889843908055
:100AC000724900202031088071486038806FFFF73C
:100AD000DEFAF8BDF0B56F48828A018A0A40FF212C
:100AE0008182C62114460C406949702360395B5AE3
:100AF000CD6E02266031002C22D0C4242240002476
:100B0000002A05D082883243828006224A7507E097
:100B10004A7D042A03D1027BEB18203BDA774C751F
:100B200001210180032109020182FC21818384804B
:100B30005648048004828188490849008180F0BDBC
:100B4000534CD707203C648E002F03D0220A027337
:100B50004E75F0BDD206FCD54A7D022A12D0212165
:100B60008180FF21C331018248488021018090218A
:100B7000018205839B1E83820121018182880A43B1
:100B80008280F0BD047303204875F0BD42483021D7
:100B9000018300210180704710B53F4930230B834A
:100BA0003B4800224030847D002C0CD00346203B83
:100BB0005B8E0B82037D8B82012C02D0FFF708FD38
:100BC00010BD827510BD0A800272807B042803D29A
:100BD0003248018A9943018230482038028010BD92
:100BE00010B52D4C30202083FFF7B6FCA08010BD3F
:100BF00010B52B4C2089800702D52A48FFF747FA09
:100C00000720208110BD28490F200883704710B5A8
:100C100026498B891E488030027A04465200E03C07
:100C20001219C0329380027A521C1207120F0272FC
:100C30000F20088310BD10B51D488188C90704D056
:100C4000102181801B48FFF722FA10BD1A498888BD
:100C5000000717D5888808221043888000208880E4
:100C60001549403988800C4981220A80088008494A
:100C700040310872C872C87308466038817AC17200
:100C80000721817270470000800000200060004052
:100C900060010020006400400038004020580040FF
:100CA00000540040AB030000004C004000500040E6
:100CB00040300040791C000040340040F0B51C4A30
:100CC000002010801B4843791B48002B0DD0194988
:100CD000194E8039C97D03278024184D203679406C
:100CE000012B04D0052B06D009E0042106E0AC81DD
:100CF0003181092102E02C8231810A21417410499D
:100D00008180104B0381818112210174B4211180F3
:100D10000849A4391181072191800549022220390F
:100D20000A818B8813438B8011210180F0BD000064
:100D3000206000402002002000440040006C004081
:100D40001211000012030000014610B50748008987
:100D5000074A401C504300F00FF880B20549BE28F6
:100D6000888701D9022010BD012010BD003C004041
:100D700070170000C000002030B50B46014600206F
:100D80002022012409E00D46D5409D4205D31D4691
:100D90009540491B2546954040191546521E002D89
:100DA000F1DC30BD70B500242546002801DA0124AD
:100DB0004042002901DA01254942FFF7DDFFAC423C
:100DC00000D04042002C00D0494270BD30B474467F
:100DD000641E2578641CAB4200D21D46635D5B0037
:100DE000E31830BC18470000710A0000F10B000046
:100DF000070C00000F0C000079000000D50A00006D
:100E00008D0B000079000000790000004D0C0000FF
:100E100079000000370C000000BB01364A756E20D7
:100E2000323520323031350032313A32343A3438CA
:100E3000FEB5F748807A032875D1F648F54C00785E
:100E40002034C107F448009000296DD1F3491622DF
:100E500080888A5E801800D50020898A4143EE4848
:100E60000D1420380290877F0197284623377D2173
:100E70007843C900FFF780FFA17C814201D9081A9D
:100E800000E00020E17C40434143E2484909C28E32
:100E9000808E5618B04200D206463803D221FFF7A2
:100EA0006BFF02991F228A568019101801D5002065
:100EB00003E0DB49884200DD0846D649D94A088666
:100EC000019880001C301082D749088807231B0234
:100ED0009843D14B20339B785B075B0D1843088008
:100EE000CB4B68118E156033002804D0172805D32A
:100EF000162098731BE0002098730AE09F7B8742BE
:100F000001D2401E01E0874200D99873987B0328E4
:100F10000BD2C648078837430780108B012676031B
:100F20003043108310E0A7E042E0072803D9BF4810
:100F30000788B74302E0BD48078837430780168B10
:100F40000120400386431683F02D04DA8888800749
:100F500001D5012007E0FF202D30854205DD88887E
:100F6000800702D40320888004E00888F0229043A0
:100F7000A0300880042088819A7B042A02D259205C
:100F800040020BE0102A02D21920400206E0142A87
:100F900002D22120400201E0292040020882142AC6
:100FA00001D91D2003E01420801A40001D30207656
:100FB0009848227E068E0098B71A03889C48011133
:100FC0009F4214DD0022A277E2771C22A256002A5B
:100FD00029DB07D0462A08DD5921C94321773C2166
:100FE000617720E0607F401C2077084629E0B11837
:100FF000994215D20021217761771E22A256002A3C
:1010000011DB8C4907D0462A08DD3121C943A1777D
:101010001421E17707E0E07F401CA077084602E05A
:1010200000212177A177814920398A8B824B9A420E
:1010300007D9898B7D225201821A914201DA00215F
:1010400000E03021202D06DD08221143774A9388E5
:101050000225AB439380794A922313802023138087
:10106000764B20331A8A3025AA430A431A826F49E5
:1010700020398880607E8881FEBD70B502221146CD
:101080000020FFF7E9F98003634D000C288001225E
:1010900004211046FFF7E0F9C003000CA8800322EA
:1010A00008211046FFF7D8F9294640395B4C88875C
:1010B000203C6079800723D16148407C08210207E9
:1010C000120F0720FFF7C8F96279002A15D05C4B90
:1010D00020331989102631402646803EF67D1E8138
:1010E000584E0023B38133824009002900D040428A
:1010F00040B2110703D4E87202E0E88005E02873EB
:101100006079082801D3002001E06079401C6071FB
:10111000FFF7D4FDFFF78CFE002070BD3C48603027
:10112000417B4908490041734648203081890422A7
:10113000914381813C48002181800188F0229143C4
:10114000018038490820888370473F4881880222FF
:10115000914381803C49002020310880384801219A
:10116000018003210180314938482039888028488E
:1011700004218172704710B5274C0B212088090784
:101180004018FFF70FFCA088052149074018FFF71A
:1011900009FC20464038808F0D2109074018FFF7D1
:1011A00001FC10BD70B52A48407BAA2856D0294CB6
:1011B00019480622E11C1C30FFF78AF9264A012053
:1011C000108000211181124B0846403B1E18255CFF
:1011D00080363573255C157115886D06FCD4401C6E
:1011E0000928F3D310890A4A030A403253759075CF
:1011F00010462030417281720C480D4920388180A0
:1012000030210183018810221143018070BD00004C
:10121000400100208000002040000020400200200B
:10122000FF0F000000300040003400402038004034
:10123000DF2E00006F170000DC05000000580040A2
:1012400000440040006C004000600040BF5D0000B2
:10125000E03F000040230000007000409F4CA7E7E3
:10126000F0B59F4885B0808A9E49182208709D4835
:101270009D491C30FFF725F99B49102218319B48E6
:10128000FFF71FF99B4D9A48A8679B48018A0722E0
:101290001203914382148918018292480F21403031
:1012A000407B964B44078F482030582281771A8222
:1012B00000247D27FF01A600F219118A002905D01C
:1012C0007019FF3041300181518A20E018206043BD
:1012D000C0190390418C00291FD0408E00281CD0DB
:1012E000091A8748FFF75EFD81B27019FF3041305F
:1012F000009001811920C004FFF73EFD06460398C7
:101300008049408E0003FFF737FD311A0098641CB6
:101310004181042CCFD305B0F0BD7019FF307A495C
:10132000413001812821F2E710B5FFF701F96D4C3A
:101330004034A07B000701D5FFF707FFA07B8007A3
:1013400015D56C48A030417B0A0703D5F722114020
:1013500041730CE0082211434173FFF7DFFE61483F
:101360008022818E914381861046FFF7D4F80020B9
:10137000A07310BDF8B5654801885A4F49063C4630
:101380004034002918DA5B49614A4A605749614A8A
:1013900030398A6501880822114301805E490020A6
:1013A0000880FFF7BBFE07206073B88EE02108437A
:1013B000B8860846FFF7AFF84E4E4036B07A35464D
:1013C00060350300FFF702FD0403131C6188687B8E
:1013D000810704D4022108436873FFF741FF4548A1
:1013E00000681E2878D9FFF7DDFE012073E0414830
:1013F00001210068090388426ED9FFF75FFC69E0AC
:10140000687BC10610D5EF21084068730320B072D5
:10141000BA8EE08F802102430A43BA860843FFF761
:101420007AF80020E08757E041070FD5FB210840FC
:101430001021084368730020A8732F490120888079
:101440003648818904221143818145E02749228859
:101450003039098E8A4213D3BA8F314B27499A42C9
:1014600006D9EA7D002A03D18A8A0B151A438A829B
:101470008A8B01231A438A830521084368732BE072
:1014800027492548E239818026E0A07B002802D048
:101490002448FEF7FCFD15481C2110384156002950
:1014A00001D0491C01771E214156002901D0491C59
:1014B0008177697BCA070BD0817E491CC9B28176CE
:1014C000FA2909D300218176A088FFF754FE03E0B2
:1014D000080701D40220B0720020F8BDEC3F0000E4
:1014E000605800400000002018230000B0000020D9
:1014F0007B1000000001002000340040003000405C
:10150000009E33013408000048830000003C004086
:10151000F50000008D0B000000380040206C0040FA
:10152000CF030000291300007348417B490849009C
:10153000417372488189042291438181704800215E
:1015400081800188F022914301806E4908208883C0
:101550007047FEB5684C6C492034A08D88422ED06F
:10156000218E6A4801902046403007460546624E6B
:10157000203F2035009000292BD16548018849067D
:101580001ED52146634AC0394A606449624A8A6569
:101590000188082211430180FEF785FFFFF7C4FF91
:1015A0000020C043A0850198072141735748E022DD
:1015B0004038818E114381861046FEF7ACFF99E0DA
:1015C00000216970A9700F21618640210181FEF719
:1015D00058FF74E042004849401CA0395118C031FE
:1015E00000078988000F7872A08D401C80B2A0850A
:1015F000072817D8022807D80020E0850099C87767
:101600008877A871E8715AE0062803D8E08D401861
:10161000E08554E0072805D1E08D801C8008E08536
:10162000019A1081E08D001F884200981FD9C07F69
:101630000099401CC0B2C8770A284BD8A879002866
:101640000FD0887F052801D9002005E0022808D99D
:10165000E879002809D0012000F086FA002839D165
:10166000E87100990020887726E00120F8E7807F64
:101670000099401CC0B28877A979002902D00A28B5
:1016800028D805E00098C07F022801D90120A87160
:101690000098C07F052801D9002005E0022808D95C
:1016A000E879002822D0012000F05EFA002811D14C
:1016B000E87100990020C877307B401EF072397ABB
:1016C000787A814286D1208E401C80B22086618E3D
:1016D00088420FD3FEF7E7FE0020C043A085218E8D
:1016E000307B0A1D824203D2401A02E00120DFE76C
:1016F0000420F0720020FEBDA0010020206C0040FC
:101700000034004000300040FFFF00004000002097
:10171000003C0040F50000008D0B00008000002020
:1017200010B5F94801688030826B036C8A1A9A42BE
:101730000ADB816383218900818101462031097C94
:1017400081730120FEF797FF10BD10B5EF48007CB4
:10175000040917D0052C15D80007000F082803D05E
:1017600009280FD1022C0DD8E849E748621C103136
:101770008D30FEF7ADFEE4480C2180300173204629
:10178000FEF779FF10BDE04810B5E1498030818156
:10179000DE492039897E81730120FEF76CFF10BD80
:1017A000F8B5D9490024A031487BC206002A10DAD6
:1017B000EF221040D54A4873D44D403A918EE88FBD
:1017C00080230143194391861843FEF7A4FEEC875A
:1017D000F8BD43070422002B11DAFB231840102325
:1017E000184348738C73CB480121818001883023D2
:1017F00099430180C848818911438181F8BDC74957
:10180000087E002802D000F086FCF8BDBE48C04E1D
:1018100003688030C56BD0365D1BB54203DBC36304
:1018200048200876EFE7816B056C591AA942ECDB7A
:10183000BB4D8363297F2B468E072033002E19D0A2
:101840001E79072E16D2761CC8431E71800704D05D
:101850008807800F012802D006E0480704D411430E
:10186000297700F043FCF8BDF9200140297700F00A
:101870000CFCF8BDA949322620394A785707002FB9
:1018800006DAFB231A404A700664FFF77CFFF8BDB6
:10189000170706D5F7231A404A700664FFF755FF6D
:1018A000F8BD1C7100F08DFA687F0028F8D0401E4A
:1018B0006877F8BD944810B59A498030C1604121DD
:1018C000490201610520FEF7D6FE10BD8E4810B515
:1018D00095498030C160954901829549CA798274E1
:1018E0000A7AC274497A01750720FEF7C4FE10BD5A
:1018F00010B586480088C008FF2800D9FF2082491B
:10190000FF220D3280318A8188730120FEF7B3FEF9
:1019100010BD83490622603908747B48322180302B
:101920000164014640398A7240390968323981635D
:101930007047F0B57F4A0020108079482030437905
:101940007D48002B0ED07649734D60397A4EC97DA3
:1019500003278024203D20367940012B04D0052B1D
:1019600006D009E0142106E0AC813181192102E0A2
:101970002C8231811A21417470498180704B03811E
:10198000818132210174B42111805F497C31118140
:10199000072191806749022220390A818B881343ED
:1019A0008B8011210180F0BD70B50222114600200C
:1019B000FEF752FD8003554D000C288001220421C2
:1019C0001046FEF749FDC003000CA8800322082141
:1019D0001046FEF741FD29464039514C8887203496
:1019E0006079800724D15448407C08210207120FF7
:1019F0000720FEF731FD6279002A16D04E4B2033C6
:101A00001989102631402646803EF67D1E81424EC1
:101A10000023203EB38133824009002900D0404298
:101A200040B2110703D4E87202E0E88005E02873B1
:101A30006079082801D3002001E06079401C6071C2
:101A4000002070BDF8B53B48203880882E4F8007B5
:101A500003D43C48B867FFF76CFF2C48807B002814
:101A600002D03948FEF713FB2C482038C0780028F4
:101A700002D03648FEF70BFB294D603D287A00283E
:101A800070D1E87A2C46603C002812D0401EE872E3
:101A9000A07A052866D12E48FEF7F9FA287BE97A64
:101AA000401E81425ED10021204680300186818522
:101AB00058E0A07A144E03008036FFF787F9080536
:101AC0000E12161A4B4E515338681D284AD308205F
:101AD000287332203064012013E0FFF709FF022051
:101AE0000FE0FFF7F3FE03200BE0FFF7E3FE042017
:101AF00007E000F0E7F83868F063B0631E20287351
:101B00000520A0722EE0000000010020400000200F
:101B10000C05000000340040206C0040A0000020B4
:101B2000000200200C510A000C71110042640000F8
:101B3000E03F0000206000400044004032310000DF
:101B400032030000A91900006B220000791C00007C
:101B500053150000FFF724FE04E0FFF7E1FD01E06C
:101B6000FEF7D0FD0020F8BD70B5524904468D78CF
:101B70000B46002601202C3B4A78002D23D0092D4E
:101B80002BD00A2D38D3002C32D08E70002A31D0C1
:101B900008462038017F022211430177014620398F
:101BA00045480A7D0276497D4176444909894A07BC
:101BB0001021002A19DA4038828E0A4382861020CA
:101BC000FEF7A9FC14E0002C12D13A4C603C258EA3
:101BD0003C3565868870D65416E00A208870D05C43
:101BE000FEF7ECFCA04203D00EE0C28F0A43C2878E
:101BF000012070BD487007E0D05CE401400820433C
:101C0000D0548878401C8870002070BD29489F22DD
:101C10002038017F4908490001772948817811401F
:101C20008170704710B5264C2079211D020721488C
:101C3000120F1838921CFEF74BFC1E480122203868
:101C4000017F11430177A17820221143BF22114067
:101C5000A1700146322280390A640521417710BD06
:101C600014482038007FC00705D0154840228178ED
:101C7000114381707047D5E710B5114CE0784006EC
:101C800001D5FFF7EDFFE078010703D5A178F72232
:101C90001140A170000601D5FFF7B8FFE078C0073A
:101CA00004D005482038C07EFFF733FE0020E070E6
:101CB00010BD00002002002040000020206C0040E9
:101CC00080000020F0B5F74C85B02820E077F6487A
:101CD000818A2046203801701822F4491C30FEF712
:101CE000F0FB20462030407B0F2243075821F0486C
:101CF000002B05DBEF4B7D25DB8FED00AB4201D2E6
:101D0000A27702E03721A177F8210182E948CF22AA
:101D10004038417811404170E44910221831303088
:101D2000FEF7CFFBE4490878002801D1DF492831CC
:101D3000DC4810224830FEF7C4FBDA480622DF49AF
:101D40003C30FEF7C5FB00247D27DD4DFF01A600DA
:101D5000F219118A002905D07019FF304130018134
:101D6000518A21E018206043C0190490408C00285B
:101D700020D00499498E00291CD0411AD148FFF780
:101D800011F881B27019FF304130009001811920A3
:101D9000C004FEF7F1FF06460498CB49408E0003CD
:101DA000FEF7EAFF311A0098641C4181042CCED35F
:101DB00005B0F0BD7019FF30C449413001812821C0
:101DC000F2E7F0B5B7488FB0203008900088C049DE
:101DD0000790884202D2B64900200883B84CB54922
:101DE000A034403949780222667B0A430A92FD23D7
:101DF0000A461A400B92AF4A2546403AF00713783C
:101E0000203D002877D008982146A03116228088EE
:101E10008A5E801800D50020898A4143A5480F14A6
:101E2000808F822800D27F00D8077DD19D480C90FA
:101E3000817F099123313846484302917D21C900B1
:101E4000FEF79AFF9B4920398A7C824201D9101AF9
:101E500000E00020C97C404341439648490940388E
:101E6000C28E51180091808E884200D20090029854
:101E7000D2210003FEF780FF00991F2240180C9921
:101E80008A56101801D5002003E09249884200DDEF
:101E90000846884B403B1886782F05DA8E488188A3
:101EA000890701D5012106E0C82F06DD8A4881880F
:101EB000890702D40321818041E07811012149037F
:101EC0000C27002803D00D2804D3A77316E00020A8
:101ED000A0730AE0A27B824201D2401E01E082424E
:101EE00000D9A073A07B022806D20A9A70485A70C3
:101EF000028B0A4309E04BE0042801D90B9A00E069
:101F00000A9A6B485A70028B8A430283724803888C
:101F1000F0218B43A17B0A463A4012011343038010
:101F2000072902D9142201E02EE00422828102292D
:101F300002D94321090201E0C32109020182099863
:101F40005B4980001C300882088BC004C20E0898D0
:101F5000807A4000401D1F2800D91F20824200D2F5
:101F6000501C0A8B1F231B029A43000202430A8360
:101F7000594801880722120291434A4A4032927816
:101F80005207520D114301804A484038018E35E016
:101F9000484A403AD8072ED14948504BC030C08DEE
:101FA000984211D9880701D50B9823E04A488188C7
:101FB000002907D001883022114030291BD2018826
:101FC00010310CE0012110E0444B623B984212D2E8
:101FD000414803889B069B0F03D00188103901807C
:101FE00009E08388002B02D00021818003E088076C
:101FF00001D40A9850703A49300709D50798081A51
:10200000C001FEF7CFFE40B2411D0A2920D822E0D0
:10201000079A37208A421BD9224832492038808FBC
:10202000884207D9E07D002804D12148818A021521
:10203000114381821E48818B012211438183052037
:1020400006431F48667300682838A8630FB0F0BDC8
:10205000322129640DE0F1079623002906D0224998
:102060004A7F002A04D0521E4A7702E0310700D589
:102070002B64C3218900A981A873002801D0012005
:1020800060740120FEF7F7FAE0E70D4810B50C2167
:102090008030017318214173FF2181730120FEF705
:1020A000EAFA10BD20000020605800404C230000D8
:1020B00000300040C0000020603E0000E43F00000F
:1020C00000010020009E3301340800004883000016
:1020D00083020000FF0F000000340040310C0000BC
:1020E000F3040000CF0300000002002010B57F4879
:1020F0007E49007A08310407240FA21C08467B3869
:10210000641CFEF7E5F979480C21803801732046FC
:10211000FEF7B1FA10BDF8B5754E764F307E3546F4
:10212000401EC0B23076203D698FAA8F082810D398
:1021300083070DD13B88C91889B26987BB88D2183B
:1021400092B2AA87082803D1080968871009A887CE
:10215000F8BD0628FCD8654B16204033185E1018D1
:1021600000D500209A8A42430B2000071414081857
:10217000FEF718FCA88F052149074018FEF712FC4E
:102180005C480D214038808F09074018FEF70AFC93
:1021900038890F2109074018FEF704FC0320800747
:1021A0002043FEF7FFFB544800885249C005203108
:1021B000002801DA087D04195048008B800400D5FE
:1021C0000A344F48028A120402D515228A5614197D
:1021D000698F1522624351438288090B012A05D079
:1021E0005522D200944203DD052005E0002003E0E3
:1021F00000880006800F401C70760006C20D3D4826
:10220000403810186030027A4A43092141560A20AA
:10221000D20941438C1800D5002436482038807FED
:10222000322800D364083748844203D9404220183A
:10223000C00804193448844200D9044607212046C6
:1022400049070843FEF7AEFB284F3048803FB8816E
:10225000E0012C49FEF790FDB87300206887A8873D
:1022600030760120FEF707FAF8BD70B5FEF760F989
:10227000204CA07B400604D5E07B5A2801D124489D
:102280008047A07B234DC10603D569780422114302
:102290006970000704D517482038C07EFFF739FB66
:1022A000A07B08268007002815DA10496039487B92
:1022B000020703D5F722104048730CE030434873FF
:1022C000FFF732F90B4880224038818E9143818696
:1022D0001046FEF720F9A07BC00702D06878304393
:1022E00068700020E073A07370BD00000002002041
:1022F000A0000020400000202038004000300040B6
:102300000034004088130000E82600000C040000A0
:10231000000600208000002000EA01364A756E2089
:10232000323520323031350032313A32343A3438B5
:10233000F3041E0824010D00615A00000000000093
:1023400000AA1000D0A2AA55009B0500EB000136A0
:102350004A756E20323520323031350032313A3212
:10236000343A34387C05190624010D0000000000C1
:1023700000000000F014AC28AC28AC28BE28B92816
:102380001414000000000000000000000000000025
:00000001FF
